{"contracts/Plinko.sol":{"Plinko":{"abi":[{"inputs":[],"stateMutability":"payable","type":"constructor"},{"anonymous":false,"inputs":[{"indexed":true,"internalType":"address","name":"player","type":"address"},{"indexed":false,"internalType":"uint256","name":"bet","type":"uint256"},{"indexed":false,"internalType":"uint8","name":"rows","type":"uint8"},{"indexed":false,"internalType":"uint8","name":"risk","type":"uint8"},{"indexed":false,"internalType":"uint256","name":"bucket","type":"uint256"},{"indexed":false,"internalType":"uint256","name":"multiplier","type":"uint256"},{"indexed":false,"internalType":"uint256","name":"payout","type":"uint256"},{"indexed":false,"internalType":"uint256","name":"timestamp","type":"uint256"}],"name":"BallDropped","type":"event"},{"anonymous":false,"inputs":[{"indexed":true,"internalType":"address","name":"from","type":"address"},{"indexed":false,"internalType":"uint256","name":"amount","type":"uint256"}],"name":"Deposited","type":"event"},{"inputs":[],"name":"deposit","outputs":[],"stateMutability":"payable","type":"function"},{"inputs":[],"name":"getContractBalance","outputs":[{"internalType":"uint256","name":"","type":"uint256"}],"stateMutability":"view","type":"function"},{"inputs":[{"internalType":"uint256","name":"n","type":"uint256"}],"name":"getLeaderboard","outputs":[{"internalType":"address[]","name":"addrs","type":"address[]"},{"internalType":"uint256[]","name":"profits","type":"uint256[]"},{"internalType":"uint256[]","name":"games","type":"uint256[]"},{"internalType":"uint256[]","name":"biggestWins","type":"uint256[]"}],"stateMutability":"view","type":"function"},{"inputs":[],"name":"getPlayerCount","outputs":[{"internalType":"uint256","name":"","type":"uint256"}],"stateMutability":"view","type":"function"},{"inputs":[{"internalType":"uint8","name":"","type":"uint8"},{"internalType":"uint8","name":"","type":"uint8"},{"internalType":"uint256","name":"","type":"uint256"}],"name":"multipliers","outputs":[{"internalType":"uint256","name":"","type":"uint256"}],"stateMutability":"view","type":"function"},{"inputs":[],"name":"owner","outputs":[{"internalType":"address","name":"","type":"address"}],"stateMutability":"view","type":"function"},{"inputs":[{"internalType":"uint8","name":"rows","type":"uint8"},{"internalType":"uint8","name":"risk","type":"uint8"}],"name":"play","outputs":[],"stateMutability":"payable","type":"function"},{"inputs":[{"internalType":"uint256","name":"","type":"uint256"}],"name":"players","outputs":[{"internalType":"address","name":"","type":"address"}],"stateMutability":"view","type":"function"},{"inputs":[{"internalType":"address","name":"","type":"address"}],"name":"stats","outputs":[{"internalType":"uint256","name":"totalGames","type":"uint256"},{"internalType":"uint256","name":"totalWins","type":"uint256"},{"internalType":"uint256","name":"totalBet","type":"uint256"},{"internalType":"uint256","name":"totalPayout","type":"uint256"},{"internalType":"uint256","name":"biggestWin","type":"uint256"}],"stateMutability":"view","type":"function"},{"inputs":[{"internalType":"uint256","name":"amount","type":"uint256"}],"name":"withdraw","outputs":[],"stateMutability":"nonpayable","type":"function"}],"evm":{"bytecode":{"linkReferences":{},"object":"6080604052600080546001600160a01b031916331790556200002062000026565b6200074d565b60408051610120810182526037808252600e602080840182905261015e9484018590526096606085018190526049608086015260a085015260c084019490945260e08301526101008201526000805260008051602062001814833981519152909152620000b7907fe1d4c9e21dc23ba802cdca0654a2485d03754c04955a750836721ebd6930caf09060096200069b565b5060408051610120810182526105148082526101906020808401829052605a94840185905260286060850181905260096080860181905260a086019190915260c085019590955260e0840191909152610100830191909152600160005260008051602062001814833981519152905262000154917febb93c12d5b011a08cc333624c93b2f6b6c79875f1c2c6b4de911b0c268bd71991906200069b565b506040805161012081018252610b54808252610258602080840182905260b4948401859052601e606085018190526004608086015260a085015260c084019490945260e0830152610100820152600260005260008051602062001814833981519152909152620001e8907f52fce69653aaf3ea73e0a5c7464321537616cacb4a0c0edab3f7080e4434980c9060096200069b565b50604080516101a08101825261021c80825260b46020808401829052605a948401859052601e60608501819052600e60808601819052600860a08701819052600560c088015260e087015261010086015261012085015261014084019490945261016083015261018082015260008052600080516020620017f48339815191529091526200029a907f0d0f211fb5afa0be10502130770f9fc2da2161c601a8d8e28a0697a832200f7a90600d6200069b565b50604080516101a081018252611068808252610258602080840182905260c8948401859052603260608501819052601460808601819052600660a08701819052600360c088015260e08701526101008601526101208501526101408401949094526101608301526101808201526001600052600080516020620017f48339815191529091526200034e907fdb4d65eb6545a2ea45c517e1d995148086713dc7d38b731b7eee5a4b09b87cb890600d6200069b565b50604080516101a0810182526127108082526107d06020808401829052610190948401859052605060608501819052601460808601819052600560a08701819052600160c088015260e08701526101008601526101208501526101408401949094526101608301526101808201526002600052600080516020620017f483398151915290915262000403907f078c786fda5172dabd7c8e732d2912b59fa3e022504e65c87f5185c85a83969990600d6200069b565b5060408051610220810182526106408082526101f4602080840182905260c8948401859052605060608501819052601e60808601819052600e60a08701819052600660c08801819052600360e0890181905260026101008a01526101208901526101408801526101608701526101808601526101a08501526101c08401949094526101e083015261020082015260008052600080516020620017d4833981519152909152620004d6907ff2f42a9d0fc92985aacd64c5d53a49ab475fac493150f267358359da7c82b3cc9060116200069b565b5060408051610220810182526127108082526107d06020808401829052610258948401859052609660608501819052602860808601819052600a60a08701819052600360c08801819052600160e08901819052610100890181905261012089018190526101408901919091526101608801919091526101808701919091526101a08601919091526101c08501959095526101e0840191909152610200830191909152600092909252600080516020620017d4833981519152909152620005c0907f5bfec4d2c0c171d496c6dace7a707de4ed5920c3cec5162e3006975b8576384d9060116200069b565b506040805161022081018252620186a08082526132c86020808401829052610a28948401859052610384606085018190526101906080860181905260c860a08701819052601460c0880181905260e08801819052610100880181905261012088018190526101408801526101608701526101808601526101a08501526101c08401949094526101e08301526102008201526002600052600080516020620017d483398151915290915262000698907f2e09f87f88e1868741a81f06d3152b69ddcb1a80d9e8bd79ded5c1094c6d8bcb906011620006f1565b50565b828054828255906000526020600020908101928215620006df579160200282015b82811115620006df578251829061ffff16905591602001919060010190620006bc565b50620006ed92915062000736565b5090565b828054828255906000526020600020908101928215620006df579160200282015b82811115620006df578251829062ffffff1690559160200191906001019062000712565b5b80821115620006ed576000815560010162000737565b611077806200075d6000396000f3fe6080604052600436106100915760003560e01c8063a34b46fe11610059578063a34b46fe146101a7578063c2e52206146101d7578063d0e30db0146101ec578063e802c36f146101f4578063f71d96cb1461020757600080fd5b80632e1a7d4d146100965780636abf6463146100b85780636f9fb98a146100eb5780638bcdcbf3146100fe5780638da5cb5b1461016f575b600080fd5b3480156100a257600080fd5b506100b66100b1366004610dcf565b610227565b005b3480156100c457600080fd5b506100d86100d3366004610dfe565b6102f6565b6040519081526020015b60405180910390f35b3480156100f757600080fd5b50476100d8565b34801561010a57600080fd5b50610147610119366004610e3a565b6001602081905260009182526040909120805491810154600282015460038301546004909301549192909185565b604080519586526020860194909452928401919091526060830152608082015260a0016100e2565b34801561017b57600080fd5b5060005461018f906001600160a01b031681565b6040516001600160a01b0390911681526020016100e2565b3480156101b357600080fd5b506101c76101c2366004610dcf565b610334565b6040516100e29493929190610ea5565b3480156101e357600080fd5b506002546100d8565b6100b6610939565b6100b6610202366004610f2f565b6109b6565b34801561021357600080fd5b5061018f610222366004610dcf565b610da5565b6000546001600160a01b031633146102725760405162461bcd60e51b81526020600482015260096024820152682737ba1037bbb732b960b91b60448201526064015b60405180910390fd5b478111156102b95760405162461bcd60e51b8152602060048201526014602482015273496e73756666696369656e742062616c616e636560601b6044820152606401610269565b600080546040516001600160a01b039091169183156108fc02918491818181858888f193505050501580156102f2573d6000803e3d6000fd5b5050565b6003602052826000526040600020602052816000526040600020818154811061031e57600080fd5b9060005260206000200160009250925050505481565b6002546060908190819081908086111561034c578095505b60008167ffffffffffffffff81111561036757610367610f62565b604051908082528060200260200182016040528015610390578160200160208202803683370190505b50905060008267ffffffffffffffff8111156103ae576103ae610f62565b6040519080825280602002602001820160405280156103d7578160200160208202803683370190505b50905060005b838110156104e257600281815481106103f8576103f8610f78565b9060005260206000200160009054906101000a90046001600160a01b031683828151811061042857610428610f78565b60200260200101906001600160a01b031690816001600160a01b0316815250506000600160006002848154811061046157610461610f78565b60009182526020808320909101546001600160a01b031683528201929092526040019020600281015460038201549192501061049e5760006104b2565b806002015481600301546104b29190610fa4565b8383815181106104c4576104c4610f78565b602090810291909101015250806104da81610fbd565b9150506103dd565b5060005b6104f1600185610fa4565b8110156106b95760005b60016105078387610fa4565b6105119190610fa4565b8110156106a65782610524826001610fd6565b8151811061053457610534610f78565b602002602001015183828151811061054e5761054e610f78565b6020026020010151101561069457600083828151811061057057610570610f78565b60200260200101519050838260016105889190610fd6565b8151811061059857610598610f78565b60200260200101518483815181106105b2576105b2610f78565b602090810291909101015280846105ca846001610fd6565b815181106105da576105da610f78565b60200260200101818152505060008583815181106105fa576105fa610f78565b60200260200101519050858360016106129190610fd6565b8151811061062257610622610f78565b602002602001015186848151811061063c5761063c610f78565b6001600160a01b03909216602092830291909101909101528086610661856001610fd6565b8151811061067157610671610f78565b60200260200101906001600160a01b031690816001600160a01b03168152505050505b8061069e81610fbd565b9150506104fb565b50806106b181610fbd565b9150506104e6565b508767ffffffffffffffff8111156106d3576106d3610f62565b6040519080825280602002602001820160405280156106fc578160200160208202803683370190505b5096508767ffffffffffffffff81111561071857610718610f62565b604051908082528060200260200182016040528015610741578160200160208202803683370190505b5095508767ffffffffffffffff81111561075d5761075d610f62565b604051908082528060200260200182016040528015610786578160200160208202803683370190505b5094508767ffffffffffffffff8111156107a2576107a2610f62565b6040519080825280602002602001820160405280156107cb578160200160208202803683370190505b50935060005b8881101561092e578281815181106107eb576107eb610f78565b602002602001015188828151811061080557610805610f78565b60200260200101906001600160a01b031690816001600160a01b03168152505081818151811061083757610837610f78565b602002602001015187828151811061085157610851610f78565b6020026020010181815250506001600084838151811061087357610873610f78565b60200260200101516001600160a01b03166001600160a01b03168152602001908152602001600020600001548682815181106108b1576108b1610f78565b602002602001018181525050600160008483815181106108d3576108d3610f78565b60200260200101516001600160a01b03166001600160a01b031681526020019081526020016000206004015485828151811061091157610911610f78565b60209081029190910101528061092681610fbd565b9150506107d1565b505050509193509193565b6000546001600160a01b0316331461097f5760405162461bcd60e51b81526020600482015260096024820152682737ba1037bbb732b960b91b6044820152606401610269565b60405134815233907f2da466a7b24304f47e87fa2e1e5a81b9831ce54fec19055ce277ca2f39ba42c49060200160405180910390a2565b66038d7ea4c68000341015610a015760405162461bcd60e51b815260206004820152601160248201527026b4b7103132ba1018171818189026a7a760791b6044820152606401610269565b670de0b6b3a7640000341115610a495760405162461bcd60e51b815260206004820152600d60248201526c26b0bc103132ba10189026a7a760991b6044820152606401610269565b8160ff1660081480610a5e57508160ff16600c145b80610a6c57508160ff166010145b610aac5760405162461bcd60e51b81526020600482015260116024820152702937bbb99d101c161018991037b910189b60791b6044820152606401610269565b60028160ff161115610b005760405162461bcd60e51b815260206004820152601860248201527f5269736b3a20303d4c6f7720313d4d656420323d4869676800000000000000006044820152606401610269565b336000908152600160205260408120549003610b5957600280546001810182556000919091527f405787fa12a823e0f2b7631cc41b3ba8828b3321ca811111fa75cd3aa3bb5ace0180546001600160a01b031916331790555b3360008181526001602090815260408083205490519293610baa9344939192439290910193845260609290921b6bffffffffffffffffffffffff191660208401526034830152605482015260740190565b6040516020818303038152906040528051906020012090506000805b8460ff168160ff161015610c0257600160ff82161b831615610bf05781610bec81610fbd565b9250505b80610bfa81610fe9565b915050610bc6565b5060ff80851660009081526003602090815260408083209387168352929052908120805483908110610c3657610c36610f78565b600091825260208220015491506064610c4f8334611008565b610c59919061101f565b336000908152600160205260408120805492935091908290610c7a83610fbd565b919050555034816002016000828254610c939190610fd6565b9250508190555081816003016000828254610cae9190610fd6565b909155505034821115610cf757600181018054906000610ccd83610fbd565b9091555060009050610cdf3484610fa4565b90508160040154811115610cf557600482018190555b505b6040805134815260ff8981166020830152881681830152606081018690526080810185905260a081018490524260c0820152905133917f465f4867323d5cba0e737f0e421791dc9aea12f5f74cd48808d02183e43d2b9e919081900360e00190a2600082118015610d685750814710155b15610d9c57604051339083156108fc029084906000818181858888f19350505050158015610d9a573d6000803e3d6000fd5b505b50505050505050565b60028181548110610db557600080fd5b6000918252602090912001546001600160a01b0316905081565b600060208284031215610de157600080fd5b5035919050565b803560ff81168114610df957600080fd5b919050565b600080600060608486031215610e1357600080fd5b610e1c84610de8565b9250610e2a60208501610de8565b9150604084013590509250925092565b600060208284031215610e4c57600080fd5b81356001600160a01b0381168114610e6357600080fd5b9392505050565b600081518084526020808501945080840160005b83811015610e9a57815187529582019590820190600101610e7e565b509495945050505050565b6080808252855190820181905260009060209060a0840190828901845b82811015610ee75781516001600160a01b031684529284019290840190600101610ec2565b50505083810382850152610efb8188610e6a565b9150508281036040840152610f108186610e6a565b90508281036060840152610f248185610e6a565b979650505050505050565b60008060408385031215610f4257600080fd5b610f4b83610de8565b9150610f5960208401610de8565b90509250929050565b634e487b7160e01b600052604160045260246000fd5b634e487b7160e01b600052603260045260246000fd5b634e487b7160e01b600052601160045260246000fd5b81810381811115610fb757610fb7610f8e565b92915050565b600060018201610fcf57610fcf610f8e565b5060010190565b80820180821115610fb757610fb7610f8e565b600060ff821660ff8103610fff57610fff610f8e565b60010192915050565b8082028115828204841417610fb757610fb7610f8e565b60008261103c57634e487b7160e01b600052601260045260246000fd5b50049056fea2646970667358221220d0bb68769b9354c52ed11d384745bd6677272cf7ee1ab3630c1aeb9f089a72ac64736f6c6343000814003347d4745e02b343689a5e7ac121d2a352b7a15c10328a8759fd7d4cf0999002bbd56a60595ebefebed7f22dcee6c2acc61b06cf8c68e84c88677840365d1ff92b85aaa47b6dc46495bb8824fad4583769726fea36efd831a35556690b830a8fbe","opcodes":"PUSH1 0x80 PUSH1 0x40 MSTORE PUSH1 0x0 DUP1 SLOAD PUSH1 0x1 PUSH1 0x1 PUSH1 0xA0 SHL SUB NOT AND CALLER OR SWAP1 SSTORE PUSH3 0x20 PUSH3 0x26 JUMP JUMPDEST PUSH3 0x74D JUMP JUMPDEST PUSH1 0x40 DUP1 MLOAD PUSH2 0x120 DUP2 ADD DUP3 MSTORE PUSH1 0x37 DUP1 DUP3 MSTORE PUSH1 0xE PUSH1 0x20 DUP1 DUP5 ADD DUP3 SWAP1 MSTORE PUSH2 0x15E SWAP5 DUP5 ADD DUP6 SWAP1 MSTORE PUSH1 0x96 PUSH1 0x60 DUP6 ADD DUP2 SWAP1 MSTORE PUSH1 0x49 PUSH1 0x80 DUP7 ADD MSTORE PUSH1 0xA0 DUP6 ADD MSTORE PUSH1 0xC0 DUP5 ADD SWAP5 SWAP1 SWAP5 MSTORE PUSH1 0xE0 DUP4 ADD MSTORE PUSH2 0x100 DUP3 ADD MSTORE PUSH1 0x0 DUP1 MSTORE PUSH1 0x0 DUP1 MLOAD PUSH1 0x20 PUSH3 0x1814 DUP4 CODECOPY DUP2 MLOAD SWAP2 MSTORE SWAP1 SWAP2 MSTORE PUSH3 0xB7 SWAP1 PUSH32 0xE1D4C9E21DC23BA802CDCA0654A2485D03754C04955A750836721EBD6930CAF0 SWAP1 PUSH1 0x9 PUSH3 0x69B JUMP JUMPDEST POP PUSH1 0x40 DUP1 MLOAD PUSH2 0x120 DUP2 ADD DUP3 MSTORE PUSH2 0x514 DUP1 DUP3 MSTORE PUSH2 0x190 PUSH1 0x20 DUP1 DUP5 ADD DUP3 SWAP1 MSTORE PUSH1 0x5A SWAP5 DUP5 ADD DUP6 SWAP1 MSTORE PUSH1 0x28 PUSH1 0x60 DUP6 ADD DUP2 SWAP1 MSTORE PUSH1 0x9 PUSH1 0x80 DUP7 ADD DUP2 SWAP1 MSTORE PUSH1 0xA0 DUP7 ADD SWAP2 SWAP1 SWAP2 MSTORE PUSH1 0xC0 DUP6 ADD SWAP6 SWAP1 SWAP6 MSTORE PUSH1 0xE0 DUP5 ADD SWAP2 SWAP1 SWAP2 MSTORE PUSH2 0x100 DUP4 ADD SWAP2 SWAP1 SWAP2 MSTORE PUSH1 0x1 PUSH1 0x0 MSTORE PUSH1 0x0 DUP1 MLOAD PUSH1 0x20 PUSH3 0x1814 DUP4 CODECOPY DUP2 MLOAD SWAP2 MSTORE SWAP1 MSTORE PUSH3 0x154 SWAP2 PUSH32 0xEBB93C12D5B011A08CC333624C93B2F6B6C79875F1C2C6B4DE911B0C268BD719 SWAP2 SWAP1 PUSH3 0x69B JUMP JUMPDEST POP PUSH1 0x40 DUP1 MLOAD PUSH2 0x120 DUP2 ADD DUP3 MSTORE PUSH2 0xB54 DUP1 DUP3 MSTORE PUSH2 0x258 PUSH1 0x20 DUP1 DUP5 ADD DUP3 SWAP1 MSTORE PUSH1 0xB4 SWAP5 DUP5 ADD DUP6 SWAP1 MSTORE PUSH1 0x1E PUSH1 0x60 DUP6 ADD DUP2 SWAP1 MSTORE PUSH1 0x4 PUSH1 0x80 DUP7 ADD MSTORE PUSH1 0xA0 DUP6 ADD MSTORE PUSH1 0xC0 DUP5 ADD SWAP5 SWAP1 SWAP5 MSTORE PUSH1 0xE0 DUP4 ADD MSTORE PUSH2 0x100 DUP3 ADD MSTORE PUSH1 0x2 PUSH1 0x0 MSTORE PUSH1 0x0 DUP1 MLOAD PUSH1 0x20 PUSH3 0x1814 DUP4 CODECOPY DUP2 MLOAD SWAP2 MSTORE SWAP1 SWAP2 MSTORE PUSH3 0x1E8 SWAP1 PUSH32 0x52FCE69653AAF3EA73E0A5C7464321537616CACB4A0C0EDAB3F7080E4434980C SWAP1 PUSH1 0x9 PUSH3 0x69B JUMP JUMPDEST POP PUSH1 0x40 DUP1 MLOAD PUSH2 0x1A0 DUP2 ADD DUP3 MSTORE PUSH2 0x21C DUP1 DUP3 MSTORE PUSH1 0xB4 PUSH1 0x20 DUP1 DUP5 ADD DUP3 SWAP1 MSTORE PUSH1 0x5A SWAP5 DUP5 ADD DUP6 SWAP1 MSTORE PUSH1 0x1E PUSH1 0x60 DUP6 ADD DUP2 SWAP1 MSTORE PUSH1 0xE PUSH1 0x80 DUP7 ADD DUP2 SWAP1 MSTORE PUSH1 0x8 PUSH1 0xA0 DUP8 ADD DUP2 SWAP1 MSTORE PUSH1 0x5 PUSH1 0xC0 DUP9 ADD MSTORE PUSH1 0xE0 DUP8 ADD MSTORE PUSH2 0x100 DUP7 ADD MSTORE PUSH2 0x120 DUP6 ADD MSTORE PUSH2 0x140 DUP5 ADD SWAP5 SWAP1 SWAP5 MSTORE PUSH2 0x160 DUP4 ADD MSTORE PUSH2 0x180 DUP3 ADD MSTORE PUSH1 0x0 DUP1 MSTORE PUSH1 0x0 DUP1 MLOAD PUSH1 0x20 PUSH3 0x17F4 DUP4 CODECOPY DUP2 MLOAD SWAP2 MSTORE SWAP1 SWAP2 MSTORE PUSH3 0x29A SWAP1 PUSH32 0xD0F211FB5AFA0BE10502130770F9FC2DA2161C601A8D8E28A0697A832200F7A SWAP1 PUSH1 0xD PUSH3 0x69B JUMP JUMPDEST POP PUSH1 0x40 DUP1 MLOAD PUSH2 0x1A0 DUP2 ADD DUP3 MSTORE PUSH2 0x1068 DUP1 DUP3 MSTORE PUSH2 0x258 PUSH1 0x20 DUP1 DUP5 ADD DUP3 SWAP1 MSTORE PUSH1 0xC8 SWAP5 DUP5 ADD DUP6 SWAP1 MSTORE PUSH1 0x32 PUSH1 0x60 DUP6 ADD DUP2 SWAP1 MSTORE PUSH1 0x14 PUSH1 0x80 DUP7 ADD DUP2 SWAP1 MSTORE PUSH1 0x6 PUSH1 0xA0 DUP8 ADD DUP2 SWAP1 MSTORE PUSH1 0x3 PUSH1 0xC0 DUP9 ADD MSTORE PUSH1 0xE0 DUP8 ADD MSTORE PUSH2 0x100 DUP7 ADD MSTORE PUSH2 0x120 DUP6 ADD MSTORE PUSH2 0x140 DUP5 ADD SWAP5 SWAP1 SWAP5 MSTORE PUSH2 0x160 DUP4 ADD MSTORE PUSH2 0x180 DUP3 ADD MSTORE PUSH1 0x1 PUSH1 0x0 MSTORE PUSH1 0x0 DUP1 MLOAD PUSH1 0x20 PUSH3 0x17F4 DUP4 CODECOPY DUP2 MLOAD SWAP2 MSTORE SWAP1 SWAP2 MSTORE PUSH3 0x34E SWAP1 PUSH32 0xDB4D65EB6545A2EA45C517E1D995148086713DC7D38B731B7EEE5A4B09B87CB8 SWAP1 PUSH1 0xD PUSH3 0x69B JUMP JUMPDEST POP PUSH1 0x40 DUP1 MLOAD PUSH2 0x1A0 DUP2 ADD DUP3 MSTORE PUSH2 0x2710 DUP1 DUP3 MSTORE PUSH2 0x7D0 PUSH1 0x20 DUP1 DUP5 ADD DUP3 SWAP1 MSTORE PUSH2 0x190 SWAP5 DUP5 ADD DUP6 SWAP1 MSTORE PUSH1 0x50 PUSH1 0x60 DUP6 ADD DUP2 SWAP1 MSTORE PUSH1 0x14 PUSH1 0x80 DUP7 ADD DUP2 SWAP1 MSTORE PUSH1 0x5 PUSH1 0xA0 DUP8 ADD DUP2 SWAP1 MSTORE PUSH1 0x1 PUSH1 0xC0 DUP9 ADD MSTORE PUSH1 0xE0 DUP8 ADD MSTORE PUSH2 0x100 DUP7 ADD MSTORE PUSH2 0x120 DUP6 ADD MSTORE PUSH2 0x140 DUP5 ADD SWAP5 SWAP1 SWAP5 MSTORE PUSH2 0x160 DUP4 ADD MSTORE PUSH2 0x180 DUP3 ADD MSTORE PUSH1 0x2 PUSH1 0x0 MSTORE PUSH1 0x0 DUP1 MLOAD PUSH1 0x20 PUSH3 0x17F4 DUP4 CODECOPY DUP2 MLOAD SWAP2 MSTORE SWAP1 SWAP2 MSTORE PUSH3 0x403 SWAP1 PUSH32 0x78C786FDA5172DABD7C8E732D2912B59FA3E022504E65C87F5185C85A839699 SWAP1 PUSH1 0xD PUSH3 0x69B JUMP JUMPDEST POP PUSH1 0x40 DUP1 MLOAD PUSH2 0x220 DUP2 ADD DUP3 MSTORE PUSH2 0x640 DUP1 DUP3 MSTORE PUSH2 0x1F4 PUSH1 0x20 DUP1 DUP5 ADD DUP3 SWAP1 MSTORE PUSH1 0xC8 SWAP5 DUP5 ADD DUP6 SWAP1 MSTORE PUSH1 0x50 PUSH1 0x60 DUP6 ADD DUP2 SWAP1 MSTORE PUSH1 0x1E PUSH1 0x80 DUP7 ADD DUP2 SWAP1 MSTORE PUSH1 0xE PUSH1 0xA0 DUP8 ADD DUP2 SWAP1 MSTORE PUSH1 0x6 PUSH1 0xC0 DUP9 ADD DUP2 SWAP1 MSTORE PUSH1 0x3 PUSH1 0xE0 DUP10 ADD DUP2 SWAP1 MSTORE PUSH1 0x2 PUSH2 0x100 DUP11 ADD MSTORE PUSH2 0x120 DUP10 ADD MSTORE PUSH2 0x140 DUP9 ADD MSTORE PUSH2 0x160 DUP8 ADD MSTORE PUSH2 0x180 DUP7 ADD MSTORE PUSH2 0x1A0 DUP6 ADD MSTORE PUSH2 0x1C0 DUP5 ADD SWAP5 SWAP1 SWAP5 MSTORE PUSH2 0x1E0 DUP4 ADD MSTORE PUSH2 0x200 DUP3 ADD MSTORE PUSH1 0x0 DUP1 MSTORE PUSH1 0x0 DUP1 MLOAD PUSH1 0x20 PUSH3 0x17D4 DUP4 CODECOPY DUP2 MLOAD SWAP2 MSTORE SWAP1 SWAP2 MSTORE PUSH3 0x4D6 SWAP1 PUSH32 0xF2F42A9D0FC92985AACD64C5D53A49AB475FAC493150F267358359DA7C82B3CC SWAP1 PUSH1 0x11 PUSH3 0x69B JUMP JUMPDEST POP PUSH1 0x40 DUP1 MLOAD PUSH2 0x220 DUP2 ADD DUP3 MSTORE PUSH2 0x2710 DUP1 DUP3 MSTORE PUSH2 0x7D0 PUSH1 0x20 DUP1 DUP5 ADD DUP3 SWAP1 MSTORE PUSH2 0x258 SWAP5 DUP5 ADD DUP6 SWAP1 MSTORE PUSH1 0x96 PUSH1 0x60 DUP6 ADD DUP2 SWAP1 MSTORE PUSH1 0x28 PUSH1 0x80 DUP7 ADD DUP2 SWAP1 MSTORE PUSH1 0xA PUSH1 0xA0 DUP8 ADD DUP2 SWAP1 MSTORE PUSH1 0x3 PUSH1 0xC0 DUP9 ADD DUP2 SWAP1 MSTORE PUSH1 0x1 PUSH1 0xE0 DUP10 ADD DUP2 SWAP1 MSTORE PUSH2 0x100 DUP10 ADD DUP2 SWAP1 MSTORE PUSH2 0x120 DUP10 ADD DUP2 SWAP1 MSTORE PUSH2 0x140 DUP10 ADD SWAP2 SWAP1 SWAP2 MSTORE PUSH2 0x160 DUP9 ADD SWAP2 SWAP1 SWAP2 MSTORE PUSH2 0x180 DUP8 ADD SWAP2 SWAP1 SWAP2 MSTORE PUSH2 0x1A0 DUP7 ADD SWAP2 SWAP1 SWAP2 MSTORE PUSH2 0x1C0 DUP6 ADD SWAP6 SWAP1 SWAP6 MSTORE PUSH2 0x1E0 DUP5 ADD SWAP2 SWAP1 SWAP2 MSTORE PUSH2 0x200 DUP4 ADD SWAP2 SWAP1 SWAP2 MSTORE PUSH1 0x0 SWAP3 SWAP1 SWAP3 MSTORE PUSH1 0x0 DUP1 MLOAD PUSH1 0x20 PUSH3 0x17D4 DUP4 CODECOPY DUP2 MLOAD SWAP2 MSTORE SWAP1 SWAP2 MSTORE PUSH3 0x5C0 SWAP1 PUSH32 0x5BFEC4D2C0C171D496C6DACE7A707DE4ED5920C3CEC5162E3006975B8576384D SWAP1 PUSH1 0x11 PUSH3 0x69B JUMP JUMPDEST POP PUSH1 0x40 DUP1 MLOAD PUSH2 0x220 DUP2 ADD DUP3 MSTORE PUSH3 0x186A0 DUP1 DUP3 MSTORE PUSH2 0x32C8 PUSH1 0x20 DUP1 DUP5 ADD DUP3 SWAP1 MSTORE PUSH2 0xA28 SWAP5 DUP5 ADD DUP6 SWAP1 MSTORE PUSH2 0x384 PUSH1 0x60 DUP6 ADD DUP2 SWAP1 MSTORE PUSH2 0x190 PUSH1 0x80 DUP7 ADD DUP2 SWAP1 MSTORE PUSH1 0xC8 PUSH1 0xA0 DUP8 ADD DUP2 SWAP1 MSTORE PUSH1 0x14 PUSH1 0xC0 DUP9 ADD DUP2 SWAP1 MSTORE PUSH1 0xE0 DUP9 ADD DUP2 SWAP1 MSTORE PUSH2 0x100 DUP9 ADD DUP2 SWAP1 MSTORE PUSH2 0x120 DUP9 ADD DUP2 SWAP1 MSTORE PUSH2 0x140 DUP9 ADD MSTORE PUSH2 0x160 DUP8 ADD MSTORE PUSH2 0x180 DUP7 ADD MSTORE PUSH2 0x1A0 DUP6 ADD MSTORE PUSH2 0x1C0 DUP5 ADD SWAP5 SWAP1 SWAP5 MSTORE PUSH2 0x1E0 DUP4 ADD MSTORE PUSH2 0x200 DUP3 ADD MSTORE PUSH1 0x2 PUSH1 0x0 MSTORE PUSH1 0x0 DUP1 MLOAD PUSH1 0x20 PUSH3 0x17D4 DUP4 CODECOPY DUP2 MLOAD SWAP2 MSTORE SWAP1 SWAP2 MSTORE PUSH3 0x698 SWAP1 PUSH32 0x2E09F87F88E1868741A81F06D3152B69DDCB1A80D9E8BD79DED5C1094C6D8BCB SWAP1 PUSH1 0x11 PUSH3 0x6F1 JUMP JUMPDEST POP JUMP JUMPDEST DUP3 DUP1 SLOAD DUP3 DUP3 SSTORE SWAP1 PUSH1 0x0 MSTORE PUSH1 0x20 PUSH1 0x0 KECCAK256 SWAP1 DUP2 ADD SWAP3 DUP3 ISZERO PUSH3 0x6DF JUMPI SWAP2 PUSH1 0x20 MUL DUP3 ADD JUMPDEST DUP3 DUP2 GT ISZERO PUSH3 0x6DF JUMPI DUP3 MLOAD DUP3 SWAP1 PUSH2 0xFFFF AND SWAP1 SSTORE SWAP2 PUSH1 0x20 ADD SWAP2 SWAP1 PUSH1 0x1 ADD SWAP1 PUSH3 0x6BC JUMP JUMPDEST POP PUSH3 0x6ED SWAP3 SWAP2 POP PUSH3 0x736 JUMP JUMPDEST POP SWAP1 JUMP JUMPDEST DUP3 DUP1 SLOAD DUP3 DUP3 SSTORE SWAP1 PUSH1 0x0 MSTORE PUSH1 0x20 PUSH1 0x0 KECCAK256 SWAP1 DUP2 ADD SWAP3 DUP3 ISZERO PUSH3 0x6DF JUMPI SWAP2 PUSH1 0x20 MUL DUP3 ADD JUMPDEST DUP3 DUP2 GT ISZERO PUSH3 0x6DF JUMPI DUP3 MLOAD DUP3 SWAP1 PUSH3 0xFFFFFF AND SWAP1 SSTORE SWAP2 PUSH1 0x20 ADD SWAP2 SWAP1 PUSH1 0x1 ADD SWAP1 PUSH3 0x712 JUMP JUMPDEST JUMPDEST DUP1 DUP3 GT ISZERO PUSH3 0x6ED JUMPI PUSH1 0x0 DUP2 SSTORE PUSH1 0x1 ADD PUSH3 0x737 JUMP JUMPDEST PUSH2 0x1077 DUP1 PUSH3 0x75D PUSH1 0x0 CODECOPY PUSH1 0x0 RETURN INVALID PUSH1 0x80 PUSH1 0x40 MSTORE PUSH1 0x4 CALLDATASIZE LT PUSH2 0x91 JUMPI PUSH1 0x0 CALLDATALOAD PUSH1 0xE0 SHR DUP1 PUSH4 0xA34B46FE GT PUSH2 0x59 JUMPI DUP1 PUSH4 0xA34B46FE EQ PUSH2 0x1A7 JUMPI DUP1 PUSH4 0xC2E52206 EQ PUSH2 0x1D7 JUMPI DUP1 PUSH4 0xD0E30DB0 EQ PUSH2 0x1EC JUMPI DUP1 PUSH4 0xE802C36F EQ PUSH2 0x1F4 JUMPI DUP1 PUSH4 0xF71D96CB EQ PUSH2 0x207 JUMPI PUSH1 0x0 DUP1 REVERT JUMPDEST DUP1 PUSH4 0x2E1A7D4D EQ PUSH2 0x96 JUMPI DUP1 PUSH4 0x6ABF6463 EQ PUSH2 0xB8 JUMPI DUP1 PUSH4 0x6F9FB98A EQ PUSH2 0xEB JUMPI DUP1 PUSH4 0x8BCDCBF3 EQ PUSH2 0xFE JUMPI DUP1 PUSH4 0x8DA5CB5B EQ PUSH2 0x16F JUMPI JUMPDEST PUSH1 0x0 DUP1 REVERT JUMPDEST CALLVALUE DUP1 ISZERO PUSH2 0xA2 JUMPI PUSH1 0x0 DUP1 REVERT JUMPDEST POP PUSH2 0xB6 PUSH2 0xB1 CALLDATASIZE PUSH1 0x4 PUSH2 0xDCF JUMP JUMPDEST PUSH2 0x227 JUMP JUMPDEST STOP JUMPDEST CALLVALUE DUP1 ISZERO PUSH2 0xC4 JUMPI PUSH1 0x0 DUP1 REVERT JUMPDEST POP PUSH2 0xD8 PUSH2 0xD3 CALLDATASIZE PUSH1 0x4 PUSH2 0xDFE JUMP JUMPDEST PUSH2 0x2F6 JUMP JUMPDEST PUSH1 0x40 MLOAD SWAP1 DUP2 MSTORE PUSH1 0x20 ADD JUMPDEST PUSH1 0x40 MLOAD DUP1 SWAP2 SUB SWAP1 RETURN JUMPDEST CALLVALUE DUP1 ISZERO PUSH2 0xF7 JUMPI PUSH1 0x0 DUP1 REVERT JUMPDEST POP SELFBALANCE PUSH2 0xD8 JUMP JUMPDEST CALLVALUE DUP1 ISZERO PUSH2 0x10A JUMPI PUSH1 0x0 DUP1 REVERT JUMPDEST POP PUSH2 0x147 PUSH2 0x119 CALLDATASIZE PUSH1 0x4 PUSH2 0xE3A JUMP JUMPDEST PUSH1 0x1 PUSH1 0x20 DUP2 SWAP1 MSTORE PUSH1 0x0 SWAP2 DUP3 MSTORE PUSH1 0x40 SWAP1 SWAP2 KECCAK256 DUP1 SLOAD SWAP2 DUP2 ADD SLOAD PUSH1 0x2 DUP3 ADD SLOAD PUSH1 0x3 DUP4 ADD SLOAD PUSH1 0x4 SWAP1 SWAP4 ADD SLOAD SWAP2 SWAP3 SWAP1 SWAP2 DUP6 JUMP JUMPDEST PUSH1 0x40 DUP1 MLOAD SWAP6 DUP7 MSTORE PUSH1 0x20 DUP7 ADD SWAP5 SWAP1 SWAP5 MSTORE SWAP3 DUP5 ADD SWAP2 SWAP1 SWAP2 MSTORE PUSH1 0x60 DUP4 ADD MSTORE PUSH1 0x80 DUP3 ADD MSTORE PUSH1 0xA0 ADD PUSH2 0xE2 JUMP JUMPDEST CALLVALUE DUP1 ISZERO PUSH2 0x17B JUMPI PUSH1 0x0 DUP1 REVERT JUMPDEST POP PUSH1 0x0 SLOAD PUSH2 0x18F SWAP1 PUSH1 0x1 PUSH1 0x1 PUSH1 0xA0 SHL SUB AND DUP2 JUMP JUMPDEST PUSH1 0x40 MLOAD PUSH1 0x1 PUSH1 0x1 PUSH1 0xA0 SHL SUB SWAP1 SWAP2 AND DUP2 MSTORE PUSH1 0x20 ADD PUSH2 0xE2 JUMP JUMPDEST CALLVALUE DUP1 ISZERO PUSH2 0x1B3 JUMPI PUSH1 0x0 DUP1 REVERT JUMPDEST POP PUSH2 0x1C7 PUSH2 0x1C2 CALLDATASIZE PUSH1 0x4 PUSH2 0xDCF JUMP JUMPDEST PUSH2 0x334 JUMP JUMPDEST PUSH1 0x40 MLOAD PUSH2 0xE2 SWAP5 SWAP4 SWAP3 SWAP2 SWAP1 PUSH2 0xEA5 JUMP JUMPDEST CALLVALUE DUP1 ISZERO PUSH2 0x1E3 JUMPI PUSH1 0x0 DUP1 REVERT JUMPDEST POP PUSH1 0x2 SLOAD PUSH2 0xD8 JUMP JUMPDEST PUSH2 0xB6 PUSH2 0x939 JUMP JUMPDEST PUSH2 0xB6 PUSH2 0x202 CALLDATASIZE PUSH1 0x4 PUSH2 0xF2F JUMP JUMPDEST PUSH2 0x9B6 JUMP JUMPDEST CALLVALUE DUP1 ISZERO PUSH2 0x213 JUMPI PUSH1 0x0 DUP1 REVERT JUMPDEST POP PUSH2 0x18F PUSH2 0x222 CALLDATASIZE PUSH1 0x4 PUSH2 0xDCF JUMP JUMPDEST PUSH2 0xDA5 JUMP JUMPDEST PUSH1 0x0 SLOAD PUSH1 0x1 PUSH1 0x1 PUSH1 0xA0 SHL SUB AND CALLER EQ PUSH2 0x272 JUMPI PUSH1 0x40 MLOAD PUSH3 0x461BCD PUSH1 0xE5 SHL DUP2 MSTORE PUSH1 0x20 PUSH1 0x4 DUP3 ADD MSTORE PUSH1 0x9 PUSH1 0x24 DUP3 ADD MSTORE PUSH9 0x2737BA1037BBB732B9 PUSH1 0xB9 SHL PUSH1 0x44 DUP3 ADD MSTORE PUSH1 0x64 ADD JUMPDEST PUSH1 0x40 MLOAD DUP1 SWAP2 SUB SWAP1 REVERT JUMPDEST SELFBALANCE DUP2 GT ISZERO PUSH2 0x2B9 JUMPI PUSH1 0x40 MLOAD PUSH3 0x461BCD PUSH1 0xE5 SHL DUP2 MSTORE PUSH1 0x20 PUSH1 0x4 DUP3 ADD MSTORE PUSH1 0x14 PUSH1 0x24 DUP3 ADD MSTORE PUSH20 0x496E73756666696369656E742062616C616E6365 PUSH1 0x60 SHL PUSH1 0x44 DUP3 ADD MSTORE PUSH1 0x64 ADD PUSH2 0x269 JUMP JUMPDEST PUSH1 0x0 DUP1 SLOAD PUSH1 0x40 MLOAD PUSH1 0x1 PUSH1 0x1 PUSH1 0xA0 SHL SUB SWAP1 SWAP2 AND SWAP2 DUP4 ISZERO PUSH2 0x8FC MUL SWAP2 DUP5 SWAP2 DUP2 DUP2 DUP2 DUP6 DUP9 DUP9 CALL SWAP4 POP POP POP POP ISZERO DUP1 ISZERO PUSH2 0x2F2 JUMPI RETURNDATASIZE PUSH1 0x0 DUP1 RETURNDATACOPY RETURNDATASIZE PUSH1 0x0 REVERT JUMPDEST POP POP JUMP JUMPDEST PUSH1 0x3 PUSH1 0x20 MSTORE DUP3 PUSH1 0x0 MSTORE PUSH1 0x40 PUSH1 0x0 KECCAK256 PUSH1 0x20 MSTORE DUP2 PUSH1 0x0 MSTORE PUSH1 0x40 PUSH1 0x0 KECCAK256 DUP2 DUP2 SLOAD DUP2 LT PUSH2 0x31E JUMPI PUSH1 0x0 DUP1 REVERT JUMPDEST SWAP1 PUSH1 0x0 MSTORE PUSH1 0x20 PUSH1 0x0 KECCAK256 ADD PUSH1 0x0 SWAP3 POP SWAP3 POP POP POP SLOAD DUP2 JUMP JUMPDEST PUSH1 0x2 SLOAD PUSH1 0x60 SWAP1 DUP2 SWAP1 DUP2 SWAP1 DUP2 SWAP1 DUP1 DUP7 GT ISZERO PUSH2 0x34C JUMPI DUP1 SWAP6 POP JUMPDEST PUSH1 0x0 DUP2 PUSH8 0xFFFFFFFFFFFFFFFF DUP2 GT ISZERO PUSH2 0x367 JUMPI PUSH2 0x367 PUSH2 0xF62 JUMP JUMPDEST PUSH1 0x40 MLOAD SWAP1 DUP1 DUP3 MSTORE DUP1 PUSH1 0x20 MUL PUSH1 0x20 ADD DUP3 ADD PUSH1 0x40 MSTORE DUP1 ISZERO PUSH2 0x390 JUMPI DUP2 PUSH1 0x20 ADD PUSH1 0x20 DUP3 MUL DUP1 CALLDATASIZE DUP4 CALLDATACOPY ADD SWAP1 POP JUMPDEST POP SWAP1 POP PUSH1 0x0 DUP3 PUSH8 0xFFFFFFFFFFFFFFFF DUP2 GT ISZERO PUSH2 0x3AE JUMPI PUSH2 0x3AE PUSH2 0xF62 JUMP JUMPDEST PUSH1 0x40 MLOAD SWAP1 DUP1 DUP3 MSTORE DUP1 PUSH1 0x20 MUL PUSH1 0x20 ADD DUP3 ADD PUSH1 0x40 MSTORE DUP1 ISZERO PUSH2 0x3D7 JUMPI DUP2 PUSH1 0x20 ADD PUSH1 0x20 DUP3 MUL DUP1 CALLDATASIZE DUP4 CALLDATACOPY ADD SWAP1 POP JUMPDEST POP SWAP1 POP PUSH1 0x0 JUMPDEST DUP4 DUP2 LT ISZERO PUSH2 0x4E2 JUMPI PUSH1 0x2 DUP2 DUP2 SLOAD DUP2 LT PUSH2 0x3F8 JUMPI PUSH2 0x3F8 PUSH2 0xF78 JUMP JUMPDEST SWAP1 PUSH1 0x0 MSTORE PUSH1 0x20 PUSH1 0x0 KECCAK256 ADD PUSH1 0x0 SWAP1 SLOAD SWAP1 PUSH2 0x100 EXP SWAP1 DIV PUSH1 0x1 PUSH1 0x1 PUSH1 0xA0 SHL SUB AND DUP4 DUP3 DUP2 MLOAD DUP2 LT PUSH2 0x428 JUMPI PUSH2 0x428 PUSH2 0xF78 JUMP JUMPDEST PUSH1 0x20 MUL PUSH1 0x20 ADD ADD SWAP1 PUSH1 0x1 PUSH1 0x1 PUSH1 0xA0 SHL SUB AND SWAP1 DUP2 PUSH1 0x1 PUSH1 0x1 PUSH1 0xA0 SHL SUB AND DUP2 MSTORE POP POP PUSH1 0x0 PUSH1 0x1 PUSH1 0x0 PUSH1 0x2 DUP5 DUP2 SLOAD DUP2 LT PUSH2 0x461 JUMPI PUSH2 0x461 PUSH2 0xF78 JUMP JUMPDEST PUSH1 0x0 SWAP2 DUP3 MSTORE PUSH1 0x20 DUP1 DUP4 KECCAK256 SWAP1 SWAP2 ADD SLOAD PUSH1 0x1 PUSH1 0x1 PUSH1 0xA0 SHL SUB AND DUP4 MSTORE DUP3 ADD SWAP3 SWAP1 SWAP3 MSTORE PUSH1 0x40 ADD SWAP1 KECCAK256 PUSH1 0x2 DUP2 ADD SLOAD PUSH1 0x3 DUP3 ADD SLOAD SWAP2 SWAP3 POP LT PUSH2 0x49E JUMPI PUSH1 0x0 PUSH2 0x4B2 JUMP JUMPDEST DUP1 PUSH1 0x2 ADD SLOAD DUP2 PUSH1 0x3 ADD SLOAD PUSH2 0x4B2 SWAP2 SWAP1 PUSH2 0xFA4 JUMP JUMPDEST DUP4 DUP4 DUP2 MLOAD DUP2 LT PUSH2 0x4C4 JUMPI PUSH2 0x4C4 PUSH2 0xF78 JUMP JUMPDEST PUSH1 0x20 SWAP1 DUP2 MUL SWAP2 SWAP1 SWAP2 ADD ADD MSTORE POP DUP1 PUSH2 0x4DA DUP2 PUSH2 0xFBD JUMP JUMPDEST SWAP2 POP POP PUSH2 0x3DD JUMP JUMPDEST POP PUSH1 0x0 JUMPDEST PUSH2 0x4F1 PUSH1 0x1 DUP6 PUSH2 0xFA4 JUMP JUMPDEST DUP2 LT ISZERO PUSH2 0x6B9 JUMPI PUSH1 0x0 JUMPDEST PUSH1 0x1 PUSH2 0x507 DUP4 DUP8 PUSH2 0xFA4 JUMP JUMPDEST PUSH2 0x511 SWAP2 SWAP1 PUSH2 0xFA4 JUMP JUMPDEST DUP2 LT ISZERO PUSH2 0x6A6 JUMPI DUP3 PUSH2 0x524 DUP3 PUSH1 0x1 PUSH2 0xFD6 JUMP JUMPDEST DUP2 MLOAD DUP2 LT PUSH2 0x534 JUMPI PUSH2 0x534 PUSH2 0xF78 JUMP JUMPDEST PUSH1 0x20 MUL PUSH1 0x20 ADD ADD MLOAD DUP4 DUP3 DUP2 MLOAD DUP2 LT PUSH2 0x54E JUMPI PUSH2 0x54E PUSH2 0xF78 JUMP JUMPDEST PUSH1 0x20 MUL PUSH1 0x20 ADD ADD MLOAD LT ISZERO PUSH2 0x694 JUMPI PUSH1 0x0 DUP4 DUP3 DUP2 MLOAD DUP2 LT PUSH2 0x570 JUMPI PUSH2 0x570 PUSH2 0xF78 JUMP JUMPDEST PUSH1 0x20 MUL PUSH1 0x20 ADD ADD MLOAD SWAP1 POP DUP4 DUP3 PUSH1 0x1 PUSH2 0x588 SWAP2 SWAP1 PUSH2 0xFD6 JUMP JUMPDEST DUP2 MLOAD DUP2 LT PUSH2 0x598 JUMPI PUSH2 0x598 PUSH2 0xF78 JUMP JUMPDEST PUSH1 0x20 MUL PUSH1 0x20 ADD ADD MLOAD DUP5 DUP4 DUP2 MLOAD DUP2 LT PUSH2 0x5B2 JUMPI PUSH2 0x5B2 PUSH2 0xF78 JUMP JUMPDEST PUSH1 0x20 SWAP1 DUP2 MUL SWAP2 SWAP1 SWAP2 ADD ADD MSTORE DUP1 DUP5 PUSH2 0x5CA DUP5 PUSH1 0x1 PUSH2 0xFD6 JUMP JUMPDEST DUP2 MLOAD DUP2 LT PUSH2 0x5DA JUMPI PUSH2 0x5DA PUSH2 0xF78 JUMP JUMPDEST PUSH1 0x20 MUL PUSH1 0x20 ADD ADD DUP2 DUP2 MSTORE POP POP PUSH1 0x0 DUP6 DUP4 DUP2 MLOAD DUP2 LT PUSH2 0x5FA JUMPI PUSH2 0x5FA PUSH2 0xF78 JUMP JUMPDEST PUSH1 0x20 MUL PUSH1 0x20 ADD ADD MLOAD SWAP1 POP DUP6 DUP4 PUSH1 0x1 PUSH2 0x612 SWAP2 SWAP1 PUSH2 0xFD6 JUMP JUMPDEST DUP2 MLOAD DUP2 LT PUSH2 0x622 JUMPI PUSH2 0x622 PUSH2 0xF78 JUMP JUMPDEST PUSH1 0x20 MUL PUSH1 0x20 ADD ADD MLOAD DUP7 DUP5 DUP2 MLOAD DUP2 LT PUSH2 0x63C JUMPI PUSH2 0x63C PUSH2 0xF78 JUMP JUMPDEST PUSH1 0x1 PUSH1 0x1 PUSH1 0xA0 SHL SUB SWAP1 SWAP3 AND PUSH1 0x20 SWAP3 DUP4 MUL SWAP2 SWAP1 SWAP2 ADD SWAP1 SWAP2 ADD MSTORE DUP1 DUP7 PUSH2 0x661 DUP6 PUSH1 0x1 PUSH2 0xFD6 JUMP JUMPDEST DUP2 MLOAD DUP2 LT PUSH2 0x671 JUMPI PUSH2 0x671 PUSH2 0xF78 JUMP JUMPDEST PUSH1 0x20 MUL PUSH1 0x20 ADD ADD SWAP1 PUSH1 0x1 PUSH1 0x1 PUSH1 0xA0 SHL SUB AND SWAP1 DUP2 PUSH1 0x1 PUSH1 0x1 PUSH1 0xA0 SHL SUB AND DUP2 MSTORE POP POP POP POP JUMPDEST DUP1 PUSH2 0x69E DUP2 PUSH2 0xFBD JUMP JUMPDEST SWAP2 POP POP PUSH2 0x4FB JUMP JUMPDEST POP DUP1 PUSH2 0x6B1 DUP2 PUSH2 0xFBD JUMP JUMPDEST SWAP2 POP POP PUSH2 0x4E6 JUMP JUMPDEST POP DUP8 PUSH8 0xFFFFFFFFFFFFFFFF DUP2 GT ISZERO PUSH2 0x6D3 JUMPI PUSH2 0x6D3 PUSH2 0xF62 JUMP JUMPDEST PUSH1 0x40 MLOAD SWAP1 DUP1 DUP3 MSTORE DUP1 PUSH1 0x20 MUL PUSH1 0x20 ADD DUP3 ADD PUSH1 0x40 MSTORE DUP1 ISZERO PUSH2 0x6FC JUMPI DUP2 PUSH1 0x20 ADD PUSH1 0x20 DUP3 MUL DUP1 CALLDATASIZE DUP4 CALLDATACOPY ADD SWAP1 POP JUMPDEST POP SWAP7 POP DUP8 PUSH8 0xFFFFFFFFFFFFFFFF DUP2 GT ISZERO PUSH2 0x718 JUMPI PUSH2 0x718 PUSH2 0xF62 JUMP JUMPDEST PUSH1 0x40 MLOAD SWAP1 DUP1 DUP3 MSTORE DUP1 PUSH1 0x20 MUL PUSH1 0x20 ADD DUP3 ADD PUSH1 0x40 MSTORE DUP1 ISZERO PUSH2 0x741 JUMPI DUP2 PUSH1 0x20 ADD PUSH1 0x20 DUP3 MUL DUP1 CALLDATASIZE DUP4 CALLDATACOPY ADD SWAP1 POP JUMPDEST POP SWAP6 POP DUP8 PUSH8 0xFFFFFFFFFFFFFFFF DUP2 GT ISZERO PUSH2 0x75D JUMPI PUSH2 0x75D PUSH2 0xF62 JUMP JUMPDEST PUSH1 0x40 MLOAD SWAP1 DUP1 DUP3 MSTORE DUP1 PUSH1 0x20 MUL PUSH1 0x20 ADD DUP3 ADD PUSH1 0x40 MSTORE DUP1 ISZERO PUSH2 0x786 JUMPI DUP2 PUSH1 0x20 ADD PUSH1 0x20 DUP3 MUL DUP1 CALLDATASIZE DUP4 CALLDATACOPY ADD SWAP1 POP JUMPDEST POP SWAP5 POP DUP8 PUSH8 0xFFFFFFFFFFFFFFFF DUP2 GT ISZERO PUSH2 0x7A2 JUMPI PUSH2 0x7A2 PUSH2 0xF62 JUMP JUMPDEST PUSH1 0x40 MLOAD SWAP1 DUP1 DUP3 MSTORE DUP1 PUSH1 0x20 MUL PUSH1 0x20 ADD DUP3 ADD PUSH1 0x40 MSTORE DUP1 ISZERO PUSH2 0x7CB JUMPI DUP2 PUSH1 0x20 ADD PUSH1 0x20 DUP3 MUL DUP1 CALLDATASIZE DUP4 CALLDATACOPY ADD SWAP1 POP JUMPDEST POP SWAP4 POP PUSH1 0x0 JUMPDEST DUP9 DUP2 LT ISZERO PUSH2 0x92E JUMPI DUP3 DUP2 DUP2 MLOAD DUP2 LT PUSH2 0x7EB JUMPI PUSH2 0x7EB PUSH2 0xF78 JUMP JUMPDEST PUSH1 0x20 MUL PUSH1 0x20 ADD ADD MLOAD DUP9 DUP3 DUP2 MLOAD DUP2 LT PUSH2 0x805 JUMPI PUSH2 0x805 PUSH2 0xF78 JUMP JUMPDEST PUSH1 0x20 MUL PUSH1 0x20 ADD ADD SWAP1 PUSH1 0x1 PUSH1 0x1 PUSH1 0xA0 SHL SUB AND SWAP1 DUP2 PUSH1 0x1 PUSH1 0x1 PUSH1 0xA0 SHL SUB AND DUP2 MSTORE POP POP DUP2 DUP2 DUP2 MLOAD DUP2 LT PUSH2 0x837 JUMPI PUSH2 0x837 PUSH2 0xF78 JUMP JUMPDEST PUSH1 0x20 MUL PUSH1 0x20 ADD ADD MLOAD DUP8 DUP3 DUP2 MLOAD DUP2 LT PUSH2 0x851 JUMPI PUSH2 0x851 PUSH2 0xF78 JUMP JUMPDEST PUSH1 0x20 MUL PUSH1 0x20 ADD ADD DUP2 DUP2 MSTORE POP POP PUSH1 0x1 PUSH1 0x0 DUP5 DUP4 DUP2 MLOAD DUP2 LT PUSH2 0x873 JUMPI PUSH2 0x873 PUSH2 0xF78 JUMP JUMPDEST PUSH1 0x20 MUL PUSH1 0x20 ADD ADD MLOAD PUSH1 0x1 PUSH1 0x1 PUSH1 0xA0 SHL SUB AND PUSH1 0x1 PUSH1 0x1 PUSH1 0xA0 SHL SUB AND DUP2 MSTORE PUSH1 0x20 ADD SWAP1 DUP2 MSTORE PUSH1 0x20 ADD PUSH1 0x0 KECCAK256 PUSH1 0x0 ADD SLOAD DUP7 DUP3 DUP2 MLOAD DUP2 LT PUSH2 0x8B1 JUMPI PUSH2 0x8B1 PUSH2 0xF78 JUMP JUMPDEST PUSH1 0x20 MUL PUSH1 0x20 ADD ADD DUP2 DUP2 MSTORE POP POP PUSH1 0x1 PUSH1 0x0 DUP5 DUP4 DUP2 MLOAD DUP2 LT PUSH2 0x8D3 JUMPI PUSH2 0x8D3 PUSH2 0xF78 JUMP JUMPDEST PUSH1 0x20 MUL PUSH1 0x20 ADD ADD MLOAD PUSH1 0x1 PUSH1 0x1 PUSH1 0xA0 SHL SUB AND PUSH1 0x1 PUSH1 0x1 PUSH1 0xA0 SHL SUB AND DUP2 MSTORE PUSH1 0x20 ADD SWAP1 DUP2 MSTORE PUSH1 0x20 ADD PUSH1 0x0 KECCAK256 PUSH1 0x4 ADD SLOAD DUP6 DUP3 DUP2 MLOAD DUP2 LT PUSH2 0x911 JUMPI PUSH2 0x911 PUSH2 0xF78 JUMP JUMPDEST PUSH1 0x20 SWAP1 DUP2 MUL SWAP2 SWAP1 SWAP2 ADD ADD MSTORE DUP1 PUSH2 0x926 DUP2 PUSH2 0xFBD JUMP JUMPDEST SWAP2 POP POP PUSH2 0x7D1 JUMP JUMPDEST POP POP POP POP SWAP2 SWAP4 POP SWAP2 SWAP4 JUMP JUMPDEST PUSH1 0x0 SLOAD PUSH1 0x1 PUSH1 0x1 PUSH1 0xA0 SHL SUB AND CALLER EQ PUSH2 0x97F JUMPI PUSH1 0x40 MLOAD PUSH3 0x461BCD PUSH1 0xE5 SHL DUP2 MSTORE PUSH1 0x20 PUSH1 0x4 DUP3 ADD MSTORE PUSH1 0x9 PUSH1 0x24 DUP3 ADD MSTORE PUSH9 0x2737BA1037BBB732B9 PUSH1 0xB9 SHL PUSH1 0x44 DUP3 ADD MSTORE PUSH1 0x64 ADD PUSH2 0x269 JUMP JUMPDEST PUSH1 0x40 MLOAD CALLVALUE DUP2 MSTORE CALLER SWAP1 PUSH32 0x2DA466A7B24304F47E87FA2E1E5A81B9831CE54FEC19055CE277CA2F39BA42C4 SWAP1 PUSH1 0x20 ADD PUSH1 0x40 MLOAD DUP1 SWAP2 SUB SWAP1 LOG2 JUMP JUMPDEST PUSH7 0x38D7EA4C68000 CALLVALUE LT ISZERO PUSH2 0xA01 JUMPI PUSH1 0x40 MLOAD PUSH3 0x461BCD PUSH1 0xE5 SHL DUP2 MSTORE PUSH1 0x20 PUSH1 0x4 DUP3 ADD MSTORE PUSH1 0x11 PUSH1 0x24 DUP3 ADD MSTORE PUSH17 0x26B4B7103132BA1018171818189026A7A7 PUSH1 0x79 SHL PUSH1 0x44 DUP3 ADD MSTORE PUSH1 0x64 ADD PUSH2 0x269 JUMP JUMPDEST PUSH8 0xDE0B6B3A7640000 CALLVALUE GT ISZERO PUSH2 0xA49 JUMPI PUSH1 0x40 MLOAD PUSH3 0x461BCD PUSH1 0xE5 SHL DUP2 MSTORE PUSH1 0x20 PUSH1 0x4 DUP3 ADD MSTORE PUSH1 0xD PUSH1 0x24 DUP3 ADD MSTORE PUSH13 0x26B0BC103132BA10189026A7A7 PUSH1 0x99 SHL PUSH1 0x44 DUP3 ADD MSTORE PUSH1 0x64 ADD PUSH2 0x269 JUMP JUMPDEST DUP2 PUSH1 0xFF AND PUSH1 0x8 EQ DUP1 PUSH2 0xA5E JUMPI POP DUP2 PUSH1 0xFF AND PUSH1 0xC EQ JUMPDEST DUP1 PUSH2 0xA6C JUMPI POP DUP2 PUSH1 0xFF AND PUSH1 0x10 EQ JUMPDEST PUSH2 0xAAC JUMPI PUSH1 0x40 MLOAD PUSH3 0x461BCD PUSH1 0xE5 SHL DUP2 MSTORE PUSH1 0x20 PUSH1 0x4 DUP3 ADD MSTORE PUSH1 0x11 PUSH1 0x24 DUP3 ADD MSTORE PUSH17 0x2937BBB99D101C161018991037B910189B PUSH1 0x79 SHL PUSH1 0x44 DUP3 ADD MSTORE PUSH1 0x64 ADD PUSH2 0x269 JUMP JUMPDEST PUSH1 0x2 DUP2 PUSH1 0xFF AND GT ISZERO PUSH2 0xB00 JUMPI PUSH1 0x40 MLOAD PUSH3 0x461BCD PUSH1 0xE5 SHL DUP2 MSTORE PUSH1 0x20 PUSH1 0x4 DUP3 ADD MSTORE PUSH1 0x18 PUSH1 0x24 DUP3 ADD MSTORE PUSH32 0x5269736B3A20303D4C6F7720313D4D656420323D486967680000000000000000 PUSH1 0x44 DUP3 ADD MSTORE PUSH1 0x64 ADD PUSH2 0x269 JUMP JUMPDEST CALLER PUSH1 0x0 SWAP1 DUP2 MSTORE PUSH1 0x1 PUSH1 0x20 MSTORE PUSH1 0x40 DUP2 KECCAK256 SLOAD SWAP1 SUB PUSH2 0xB59 JUMPI PUSH1 0x2 DUP1 SLOAD PUSH1 0x1 DUP2 ADD DUP3 SSTORE PUSH1 0x0 SWAP2 SWAP1 SWAP2 MSTORE PUSH32 0x405787FA12A823E0F2B7631CC41B3BA8828B3321CA811111FA75CD3AA3BB5ACE ADD DUP1 SLOAD PUSH1 0x1 PUSH1 0x1 PUSH1 0xA0 SHL SUB NOT AND CALLER OR SWAP1 SSTORE JUMPDEST CALLER PUSH1 0x0 DUP2 DUP2 MSTORE PUSH1 0x1 PUSH1 0x20 SWAP1 DUP2 MSTORE PUSH1 0x40 DUP1 DUP4 KECCAK256 SLOAD SWAP1 MLOAD SWAP3 SWAP4 PUSH2 0xBAA SWAP4 PREVRANDAO SWAP4 SWAP2 SWAP3 NUMBER SWAP3 SWAP1 SWAP2 ADD SWAP4 DUP5 MSTORE PUSH1 0x60 SWAP3 SWAP1 SWAP3 SHL PUSH12 0xFFFFFFFFFFFFFFFFFFFFFFFF NOT AND PUSH1 0x20 DUP5 ADD MSTORE PUSH1 0x34 DUP4 ADD MSTORE PUSH1 0x54 DUP3 ADD MSTORE PUSH1 0x74 ADD SWAP1 JUMP JUMPDEST PUSH1 0x40 MLOAD PUSH1 0x20 DUP2 DUP4 SUB SUB DUP2 MSTORE SWAP1 PUSH1 0x40 MSTORE DUP1 MLOAD SWAP1 PUSH1 0x20 ADD KECCAK256 SWAP1 POP PUSH1 0x0 DUP1 JUMPDEST DUP5 PUSH1 0xFF AND DUP2 PUSH1 0xFF AND LT ISZERO PUSH2 0xC02 JUMPI PUSH1 0x1 PUSH1 0xFF DUP3 AND SHL DUP4 AND ISZERO PUSH2 0xBF0 JUMPI DUP2 PUSH2 0xBEC DUP2 PUSH2 0xFBD JUMP JUMPDEST SWAP3 POP POP JUMPDEST DUP1 PUSH2 0xBFA DUP2 PUSH2 0xFE9 JUMP JUMPDEST SWAP2 POP POP PUSH2 0xBC6 JUMP JUMPDEST POP PUSH1 0xFF DUP1 DUP6 AND PUSH1 0x0 SWAP1 DUP2 MSTORE PUSH1 0x3 PUSH1 0x20 SWAP1 DUP2 MSTORE PUSH1 0x40 DUP1 DUP4 KECCAK256 SWAP4 DUP8 AND DUP4 MSTORE SWAP3 SWAP1 MSTORE SWAP1 DUP2 KECCAK256 DUP1 SLOAD DUP4 SWAP1 DUP2 LT PUSH2 0xC36 JUMPI PUSH2 0xC36 PUSH2 0xF78 JUMP JUMPDEST PUSH1 0x0 SWAP2 DUP3 MSTORE PUSH1 0x20 DUP3 KECCAK256 ADD SLOAD SWAP2 POP PUSH1 0x64 PUSH2 0xC4F DUP4 CALLVALUE PUSH2 0x1008 JUMP JUMPDEST PUSH2 0xC59 SWAP2 SWAP1 PUSH2 0x101F JUMP JUMPDEST CALLER PUSH1 0x0 SWAP1 DUP2 MSTORE PUSH1 0x1 PUSH1 0x20 MSTORE PUSH1 0x40 DUP2 KECCAK256 DUP1 SLOAD SWAP3 SWAP4 POP SWAP2 SWAP1 DUP3 SWAP1 PUSH2 0xC7A DUP4 PUSH2 0xFBD JUMP JUMPDEST SWAP2 SWAP1 POP SSTORE POP CALLVALUE DUP2 PUSH1 0x2 ADD PUSH1 0x0 DUP3 DUP3 SLOAD PUSH2 0xC93 SWAP2 SWAP1 PUSH2 0xFD6 JUMP JUMPDEST SWAP3 POP POP DUP2 SWAP1 SSTORE POP DUP2 DUP2 PUSH1 0x3 ADD PUSH1 0x0 DUP3 DUP3 SLOAD PUSH2 0xCAE SWAP2 SWAP1 PUSH2 0xFD6 JUMP JUMPDEST SWAP1 SWAP2 SSTORE POP POP CALLVALUE DUP3 GT ISZERO PUSH2 0xCF7 JUMPI PUSH1 0x1 DUP2 ADD DUP1 SLOAD SWAP1 PUSH1 0x0 PUSH2 0xCCD DUP4 PUSH2 0xFBD JUMP JUMPDEST SWAP1 SWAP2 SSTORE POP PUSH1 0x0 SWAP1 POP PUSH2 0xCDF CALLVALUE DUP5 PUSH2 0xFA4 JUMP JUMPDEST SWAP1 POP DUP2 PUSH1 0x4 ADD SLOAD DUP2 GT ISZERO PUSH2 0xCF5 JUMPI PUSH1 0x4 DUP3 ADD DUP2 SWAP1 SSTORE JUMPDEST POP JUMPDEST PUSH1 0x40 DUP1 MLOAD CALLVALUE DUP2 MSTORE PUSH1 0xFF DUP10 DUP2 AND PUSH1 0x20 DUP4 ADD MSTORE DUP9 AND DUP2 DUP4 ADD MSTORE PUSH1 0x60 DUP2 ADD DUP7 SWAP1 MSTORE PUSH1 0x80 DUP2 ADD DUP6 SWAP1 MSTORE PUSH1 0xA0 DUP2 ADD DUP5 SWAP1 MSTORE TIMESTAMP PUSH1 0xC0 DUP3 ADD MSTORE SWAP1 MLOAD CALLER SWAP2 PUSH32 0x465F4867323D5CBA0E737F0E421791DC9AEA12F5F74CD48808D02183E43D2B9E SWAP2 SWAP1 DUP2 SWAP1 SUB PUSH1 0xE0 ADD SWAP1 LOG2 PUSH1 0x0 DUP3 GT DUP1 ISZERO PUSH2 0xD68 JUMPI POP DUP2 SELFBALANCE LT ISZERO JUMPDEST ISZERO PUSH2 0xD9C JUMPI PUSH1 0x40 MLOAD CALLER SWAP1 DUP4 ISZERO PUSH2 0x8FC MUL SWAP1 DUP5 SWAP1 PUSH1 0x0 DUP2 DUP2 DUP2 DUP6 DUP9 DUP9 CALL SWAP4 POP POP POP POP ISZERO DUP1 ISZERO PUSH2 0xD9A JUMPI RETURNDATASIZE PUSH1 0x0 DUP1 RETURNDATACOPY RETURNDATASIZE PUSH1 0x0 REVERT JUMPDEST POP JUMPDEST POP POP POP POP POP POP POP JUMP JUMPDEST PUSH1 0x2 DUP2 DUP2 SLOAD DUP2 LT PUSH2 0xDB5 JUMPI PUSH1 0x0 DUP1 REVERT JUMPDEST PUSH1 0x0 SWAP2 DUP3 MSTORE PUSH1 0x20 SWAP1 SWAP2 KECCAK256 ADD SLOAD PUSH1 0x1 PUSH1 0x1 PUSH1 0xA0 SHL SUB AND SWAP1 POP DUP2 JUMP JUMPDEST PUSH1 0x0 PUSH1 0x20 DUP3 DUP5 SUB SLT ISZERO PUSH2 0xDE1 JUMPI PUSH1 0x0 DUP1 REVERT JUMPDEST POP CALLDATALOAD SWAP2 SWAP1 POP JUMP JUMPDEST DUP1 CALLDATALOAD PUSH1 0xFF DUP2 AND DUP2 EQ PUSH2 0xDF9 JUMPI PUSH1 0x0 DUP1 REVERT JUMPDEST SWAP2 SWAP1 POP JUMP JUMPDEST PUSH1 0x0 DUP1 PUSH1 0x0 PUSH1 0x60 DUP5 DUP7 SUB SLT ISZERO PUSH2 0xE13 JUMPI PUSH1 0x0 DUP1 REVERT JUMPDEST PUSH2 0xE1C DUP5 PUSH2 0xDE8 JUMP JUMPDEST SWAP3 POP PUSH2 0xE2A PUSH1 0x20 DUP6 ADD PUSH2 0xDE8 JUMP JUMPDEST SWAP2 POP PUSH1 0x40 DUP5 ADD CALLDATALOAD SWAP1 POP SWAP3 POP SWAP3 POP SWAP3 JUMP JUMPDEST PUSH1 0x0 PUSH1 0x20 DUP3 DUP5 SUB SLT ISZERO PUSH2 0xE4C JUMPI PUSH1 0x0 DUP1 REVERT JUMPDEST DUP2 CALLDATALOAD PUSH1 0x1 PUSH1 0x1 PUSH1 0xA0 SHL SUB DUP2 AND DUP2 EQ PUSH2 0xE63 JUMPI PUSH1 0x0 DUP1 REVERT JUMPDEST SWAP4 SWAP3 POP POP POP JUMP JUMPDEST PUSH1 0x0 DUP2 MLOAD DUP1 DUP5 MSTORE PUSH1 0x20 DUP1 DUP6 ADD SWAP5 POP DUP1 DUP5 ADD PUSH1 0x0 JUMPDEST DUP4 DUP2 LT ISZERO PUSH2 0xE9A JUMPI DUP2 MLOAD DUP8 MSTORE SWAP6 DUP3 ADD SWAP6 SWAP1 DUP3 ADD SWAP1 PUSH1 0x1 ADD PUSH2 0xE7E JUMP JUMPDEST POP SWAP5 SWAP6 SWAP5 POP POP POP POP POP JUMP JUMPDEST PUSH1 0x80 DUP1 DUP3 MSTORE DUP6 MLOAD SWAP1 DUP3 ADD DUP2 SWAP1 MSTORE PUSH1 0x0 SWAP1 PUSH1 0x20 SWAP1 PUSH1 0xA0 DUP5 ADD SWAP1 DUP3 DUP10 ADD DUP5 JUMPDEST DUP3 DUP2 LT ISZERO PUSH2 0xEE7 JUMPI DUP2 MLOAD PUSH1 0x1 PUSH1 0x1 PUSH1 0xA0 SHL SUB AND DUP5 MSTORE SWAP3 DUP5 ADD SWAP3 SWAP1 DUP5 ADD SWAP1 PUSH1 0x1 ADD PUSH2 0xEC2 JUMP JUMPDEST POP POP POP DUP4 DUP2 SUB DUP3 DUP6 ADD MSTORE PUSH2 0xEFB DUP2 DUP9 PUSH2 0xE6A JUMP JUMPDEST SWAP2 POP POP DUP3 DUP2 SUB PUSH1 0x40 DUP5 ADD MSTORE PUSH2 0xF10 DUP2 DUP7 PUSH2 0xE6A JUMP JUMPDEST SWAP1 POP DUP3 DUP2 SUB PUSH1 0x60 DUP5 ADD MSTORE PUSH2 0xF24 DUP2 DUP6 PUSH2 0xE6A JUMP JUMPDEST SWAP8 SWAP7 POP POP POP POP POP POP POP JUMP JUMPDEST PUSH1 0x0 DUP1 PUSH1 0x40 DUP4 DUP6 SUB SLT ISZERO PUSH2 0xF42 JUMPI PUSH1 0x0 DUP1 REVERT JUMPDEST PUSH2 0xF4B DUP4 PUSH2 0xDE8 JUMP JUMPDEST SWAP2 POP PUSH2 0xF59 PUSH1 0x20 DUP5 ADD PUSH2 0xDE8 JUMP JUMPDEST SWAP1 POP SWAP3 POP SWAP3 SWAP1 POP JUMP JUMPDEST PUSH4 0x4E487B71 PUSH1 0xE0 SHL PUSH1 0x0 MSTORE PUSH1 0x41 PUSH1 0x4 MSTORE PUSH1 0x24 PUSH1 0x0 REVERT JUMPDEST PUSH4 0x4E487B71 PUSH1 0xE0 SHL PUSH1 0x0 MSTORE PUSH1 0x32 PUSH1 0x4 MSTORE PUSH1 0x24 PUSH1 0x0 REVERT JUMPDEST PUSH4 0x4E487B71 PUSH1 0xE0 SHL PUSH1 0x0 MSTORE PUSH1 0x11 PUSH1 0x4 MSTORE PUSH1 0x24 PUSH1 0x0 REVERT JUMPDEST DUP2 DUP2 SUB DUP2 DUP2 GT ISZERO PUSH2 0xFB7 JUMPI PUSH2 0xFB7 PUSH2 0xF8E JUMP JUMPDEST SWAP3 SWAP2 POP POP JUMP JUMPDEST PUSH1 0x0 PUSH1 0x1 DUP3 ADD PUSH2 0xFCF JUMPI PUSH2 0xFCF PUSH2 0xF8E JUMP JUMPDEST POP PUSH1 0x1 ADD SWAP1 JUMP JUMPDEST DUP1 DUP3 ADD DUP1 DUP3 GT ISZERO PUSH2 0xFB7 JUMPI PUSH2 0xFB7 PUSH2 0xF8E JUMP JUMPDEST PUSH1 0x0 PUSH1 0xFF DUP3 AND PUSH1 0xFF DUP2 SUB PUSH2 0xFFF JUMPI PUSH2 0xFFF PUSH2 0xF8E JUMP JUMPDEST PUSH1 0x1 ADD SWAP3 SWAP2 POP POP JUMP JUMPDEST DUP1 DUP3 MUL DUP2 ISZERO DUP3 DUP3 DIV DUP5 EQ OR PUSH2 0xFB7 JUMPI PUSH2 0xFB7 PUSH2 0xF8E JUMP JUMPDEST PUSH1 0x0 DUP3 PUSH2 0x103C JUMPI PUSH4 0x4E487B71 PUSH1 0xE0 SHL PUSH1 0x0 MSTORE PUSH1 0x12 PUSH1 0x4 MSTORE PUSH1 0x24 PUSH1 0x0 REVERT JUMPDEST POP DIV SWAP1 JUMP INVALID LOG2 PUSH5 0x6970667358 0x22 SLT KECCAK256 0xD0 0xBB PUSH9 0x769B9354C52ED11D38 SELFBALANCE GASLIMIT 0xBD PUSH7 0x77272CF7EE1AB3 PUSH4 0xC1AEB9F ADDMOD SWAP11 PUSH19 0xAC64736F6C6343000814003347D4745E02B343 PUSH9 0x9A5E7AC121D2A352B7 LOG1 0x5C LT ORIGIN DUP11 DUP8 MSIZE REVERT PUSH30 0x4CF0999002BBD56A60595EBEFEBED7F22DCEE6C2ACC61B06CF8C68E84C88 PUSH8 0x7840365D1FF92B85 0xAA LOG4 PUSH28 0x6DC46495BB8824FAD4583769726FEA36EFD831A35556690B830A8FBE "},"methodIdentifiers":{"deposit()":"d0e30db0","getContractBalance()":"6f9fb98a","getLeaderboard(uint256)":"a34b46fe","getPlayerCount()":"c2e52206","multipliers(uint8,uint8,uint256)":"6abf6463","owner()":"8da5cb5b","play(uint8,uint8)":"e802c36f","players(uint256)":"f71d96cb","stats(address)":"8bcdcbf3","withdraw(uint256)":"2e1a7d4d"}}}}}